:100000000C9455000C946C000C946C000C946C00D7
:100010000C946C000C946C000C946C000C946C00B0
:100020000C946C000C946C000C946C000C946C00A0
:100030000C946C000C946C000C946C000C946C0090
:100040000C946C000C946C000C946C000C946C0080
:100050000C946C000C946C000C946C000C946C0070
:100060000C946C000C946C000C946C000C946C0060
:100070000C946C000C946C000C946C000C946C0050
:100080000C946C000C946C000C946C00C700C700BE
:10009000CD00CD00D300D300D900D900D900DF00B6
:1000A000DF00DF00E500E500E50011241FBECFEF13
:1000B000D0E4DEBFCDBF11E0A0E0B1E0EAEFF1E0B7
:1000C00000E00BBF02C007900D92AE30B107D9F728
:1000D0000E9497000C94FB000C940000CF93DF93D8
:1000E00000D01F92CDB7DEB789837B836A83898175
:1000F0008A3031F48A819B81BC018DE00E946E00C0
:1001000080EC90E0FC018081882F90E0807299273C
:100110000097B1F386EC90E02981FC01208380E018
:1001200090E00F900F900F90DF91CF910895CF93B3
:10013000DF931F92CDB7DEB781E290E0FC01108221
:1001400082E290E0FC01108287E290E02FEFFC0158
:10015000208388E290E0FC01108280E290E0FC01C4
:10016000808189838981882F90E0AA2797FDA095B7
:10017000BA2F41E050E02EE030E0841B950B2817A9
:10018000390748F18A5B9F4FFC010C94F20088E22A
:1001900090E020E6FC01208324C088E290E020E784
:1001A000FC0120831EC088E290E028E3FC0120834C
:1001B00018C088E290E02CE3FC01208312C088E2A2
:1001C00090E02EE3FC0120830CC088E290E02FE356
:1001D000FC01208306C088E290E020E4FC0120833B
:1001E0000000BBCFEE0FFF1F0024001C0BBE0790CA
:0A01F000F691E02D0994F894FFCF7A
:0E01FA0000000002000000006E000000000087
:00000001FF
